:400000000040002011000000690800006908000080B500AF00F02CFC80B500AF224B12221A6001F079FF214B181C01F0BDFC012001F082FF302001F0E9FC1D4B1D4A1A60BD
:400040001D4B8022D2051A601C4B1C4A126802210A431A601A4B1B4A1A601B4B1A4A126808218A431A60FA23DB00181C01F01AFD164B181C01F030FE154BC02292001A60C6
:40008000144B154A1A60154B802212061A60144B802212031A60134B40221A60064B8022D2051A60BD4680BD30001040001BB70004010B40060000800C020B4078002E40BF
:4000C0007C002E406A2D00006CF02E40DC050000000301400000014040FF008008010B4000010B400401014080B582B000AF72B63F4B00221A60FB1D00221A7023E0FB1D67
:400100001A78131C5B009B185B003A4A9B183B603B681A78597809020A43997809040A43DB781B061343191C3B681A795B791B0213439BB2081C191C00F01EFCFB1D1A7824
:40014000FB1D01321A70FB1D1B78012BD7D92A4BE02212031A60294BE0221A60284B992212041A60274B992212041A60264B992212041A60254B992212041A60244A244B5E
:400180001B78DBB202210B43DBB21370214A214B1B78DBB23C218B43DBB214210B43DBB213701B4A1A4B1B78DBB216210B43DBB21370194B10221A60184B8022D2011A607B
:4001C000174BC02252031A60164B40221A60164BD82252031A60154BC2221A60144B154A1A60FFF719FF00F0D7FBBD4602B080BD6CF02E40FC41010000000240000302403E
:4002000000500F4010500F4020500F4030500F4000700F4001700F40000004400800044008010440000204400802044000030440080304402000D80010B5064C2378002B87
:4002400007D1054B002B02D0044800E000BF0123237010BD2810002000000000B041010008B5084B002B03D00748084900E000BF07480368002B00D108BD064B002BFBD091
:400280009847F9E700000000B04101002C100020E00B00200000000090B587B000AF786039607B68272B00D183E022D8212B00D198E00DD8022B00D196E002D8012B42D021
:4002C000AFE0032B00D191E0042B00D190E0A8E0242B00D159E006D8222B00D18AE0232B00D189E09DE0252B00D187E0262B4FD097E0422B00D183E010D82A2B00D181E0C4
:4003000005D8282B59D0292B00D17DE089E02C2B00D17BE0412B00D17AE082E0FA2B00D178E005D84C2B53D0572B00D174E078E082225200934200D170E00622FF3293421F
:4003400000D16DE06DE01423FC18002000F096FC031C23800823FB1800229A710823FB18181C02F06BFE1723FB1806221A7006E01723FB181A781723FB18013A1A7017231B
:40038000FB181B78002BF3D14BE03B683B6148E0254B1B78042B0BD1012001F0B9FA002001F090FA012001F0D9FA01F035FD38E037E0012001F0ACFA33E0012001F0CEFACC
:4003C0001423FC18002000F059FC031C238028E03B680433181C00F0ABF93B6818680EF005FB1EE0C0461CE0C0461AE0C04618E0C04616E0C04614E0C04612E0C04610E0DE
:40040000C0460EE0C0460CE0C0460AE0C04608E0C04606E0C04604E0C04602E0C04600E0C046BD4607B090BD9E21002080B500AF01F0BCFD0120012101F0F6FD0120012170
:4004400001F01EFE084B0120191C01F07FFE012001F0C4FE80235B00181C01F047FE01F08BFDBD4680BDC046FF7F000090B583B000AF194B1B78032B03D0174B1B78022B9E
:4004800027D1FC1D032002F0D1FD031C2370BC1D01F093FA031C2370FB1D1B78032B0CD104F05CFD031E042B04D004F057FD031E062B09D101F07AFC06E004F04FFD031E44
:4004C000022B01D001F058FCBB1D1B78181C01F078FABD4603B090BD9E21002080B582B000AF62B6012001F0EDF9012001F010FA012001F033FA194B181C00F029FB184B45
:40050000181C00F061FA174B181C00F017FF14237B6001F0BBFEFFF789FF012001F078FE01233B6002F08EFDFFF7A0FF0E4B1B78022B12D10D4B1B68002B0ED00B4B0022B5
:400540001A6000F075F902F07DFD094B1B88012B03D100F079F802F075FDE3E799020000A9070000750500009E210020481000204C10002090B585B000AF786039600F234D
:40058000FB183A6892781A707B68A53BFF3B0B2B46D89A00254BD3181B689F460F23FB181B78002B09D1224B01221A80214B01221A70214B00221A7035E034E00F23FB189E
:4005C0001B78002B03D11A4B00221A802BE02AE03B685B68181C00F0ABF80F23FB181B78032B1CD13B685B681B680C22BC18181C00F0DEFB031C2380104B0C22BA18128874
:400600001A800C23FB181B88002B08D00C4B01221A600C4B1B685A1C0A4B1A6003E002E0C04600E0C046BD4605B090BDB44101004C100020EA0B002050100020E80B002055
:40064000E40B002048100020B0B582B000AF304B1B88002B59D02F4B1B685A1E2D4B1A602C4B1B68002B50D1294B1B881A1C294B1A60294B00221A70284B1B781A1C0123D3
:4006800013400FD0264B1B781A1C131CDB009B18181C052102F066FB031CDAB2FB1D20321A7003E0FB1D1E4A12781A70FC1D01F083FE031C2370FB1D1B781A4A101C191CA1
:4006C00000F054F83C1D184B144D1A785B781B021A4300231204120C1B0C1B041343181C002105222B1C01F005F8031C23803B1D1B88002B02D00D4B00221A80074B1B786B
:4007000001225340DAB2054B1A70BD4602B0B0BDE80B0020E40B0020EA0B0020501000205C10002051100020A42100204C10002080B584B000AF78600E23FB1800221A8066
:4007400008E00E23FB181B889BB201339AB20E23FB181A800E23FB1800229B5E7A6892889342EEDBBD4604B080BDC04680B582B000AF786039603B68DAB27B681A707B6806
:4007800001333A68120AD2B21A707B6802333A68120CD2B21A707B6803333A68120ED2B21A70BD4602B080BD80B584B000AF786039600F23FB183A6892781A707B68243B32
:4007C000FF3B052B28D89A00164BD3181B689F460F23FB181B78002B02D1134B01221A800F23FB181B78002B03D1104B01221A8015E014E00F23FB181B78002B02D10A4B4D
:4008000000221A800F23FB181B78002B03D1074B00221A8003E002E0C04600E0C046BD4604B080BDE4410100601000206210002080B500AF0B4B1B685A1E0A4B1A60094BD2
:400840001B68002B0BD1074B03221A60192001F01FFA012001F01CFA012001F07FF8BD4680BDC046EC0B002080B500AFFEE7C04680B586B000AF224B7B61224B3B61204B06
:400880007B6135E03B691B68FB603B695B68BB603B699B683B6000237B600CE0FB681A68BB681A60BB680433BB60FB680433FB607B6804337B607A683B689A42EED13B6972
:4008C000DB683B6000237B6008E0BB6800221A60BB680433BB607B6804337B607A683B689A42F2D13B6910333B617B69013B7B617B69002BC6D102F027FBFFF7EFFDFEE7E7
:4009000001000000E446010080B582B000AF154B144A126801218A431A6000237B600FE07B68032B04D8104B7A689200D35800E00E4B0F4A796889008B507B6801337B6037
:400940007B682F2BECD9FFF7CFFB0A4B00221A60044B044A126801210A431A60BD4602B080BDC04600001040000000006908000000000020C000002080B582B000AF78601D
:4009800039607A683B68101C00211A1C02F01AFBBD4602B080BDC04680B500AF054B03221A60054B03221A60044B00221A60BD4680BDC0463000304030003140000E3F40D6
:4009C00080B500AFBD4680BD80B582B000AF7860024B7A681A60BD4602B080BD6410002090B587B000AF78601723FB1800221A701623FB1800221A70414B1B68002B00D1B7
:400A000076E07B689B892022934265D11723FB181B783C4ADB00D3185B885A1E3A49131C9B009B189B00CB185A6880235B01134045D07B681A1D7B6816217C18101C0021C9
:400A40001A1C40230EF040FD031C23701623FB181B78002B37D10C23FB187A6812881A800C23FB181722BA1812789A700C23FB180022DA700C23FB1800225A607B685B6833
:400A8000181C00F095F9031C1A1C012313409BB2002B0AD01A4B1B682422FF32111C0C22BA18081C111C98470DE0154B1B68922251000C22BA18081C111C984703E0162389
:400AC000FB1806221A70114B1B78DBB201229343DAB20E4B1A700BE01723FB181A781723FB1801321A701723FB181B78002B88D01623FB181B78181CBD4607B090BDC046F6
:400B000064100020084201002C420100A721002080B500AF064B00221A70064B00221A70054B00221A7000F009F8BD4680BDC046A7210020A0210020A621002080B500AFDA
:400B4000FFF73EFF00F0ECFB00F0EEFBBD4680BDB0B594B004AF78603E23FB1800221A802823FA183E4B111C1A1C1423081C111C1A1C02F01EFA3B4B1B78002B04D1FFF7CE
:400B8000C7FF384B01221A707B68002B5CD0364B7A681A603E23FB181B88002B29D11023FB181C22BA185A601023FB182022BA181A601023FB1800221A812023FB181B2272
:400BC0001A802023FB181B225A802023FB1804221A711C23FB1800221A703E23FC181023FA180E23FB18101C191C02F001FB031C23803E23FB181B88002B29D13E23FC1829
:400C00001A481B49AE231A012823FD180523009300230193002302932B1C02F045FA031C23803E23FB181B88002B11D1114B01221A703E23FC18104B181C202115220EF097
:400C4000F5FB031C238003E03E23FB1801221A803E23FB181B88181CBD4610B0B0BDC0461042010068100020942100201D100000C80000209E2100202C42010090B585B090
:400C800000AF021CFB1D1A70FB1D1B78022B04D90E23FB1801221A804BE0294B1B78042B42D1284B1B78DBB21A1C042313403BD1FB1D1B78002B0BD1234B1E221A82224BE3
:400CC0005B6820221A80204B5B6830225A8010E0FB1D1B78012B0CD11B4B1E221A821A4B5B68C822D2001A80174B5B68FA2212015A80164BFA1D12781A700E23FC18124B3B
:400D0000181C0CF0C5FC031C23800E23FB181B88002B08D10B4B1B78DBB204221343DAB2084B1A7005E004E00E23FB180422FF321A800E23FB181B88181CBD4605B090BD9C
:400D40009E210020A7210020280C0020A621002080B584B000AF78600A1CFB1C1A700023BB60BB68002B20D07B689A79BB681A700F23FB1800221A7012E00F23FB181B78E0
:400D80000133BA68D3180F22BA18127879688A5C1A700F23FB181A780F23FB1801321A700F23FB181B78052BE7D9BD4604B080BD80B582B000AF78607B681B789AB27B68EC
:400DC00001331B789BB21B029BB213439BB2181CBD4602B080BDC04690B585B000AF78600F23FB1800221A707B689B890B22934237D17B681A1D7B680F217C18101C002195
:400E00001A1C40230EF060FB031C23700F23FB181B78002B1DD17B685B68181CFFF7C8FF031C1A1C022313409BB2002B08D0104B1B68822251007A68081C111C984708E09C
:400E40000B4B1B680622FF32111C7A68081C111C9847084B1B78DBB201229343DAB2054B1A700F23FB181B78181CBD4605B090BD94210020A721002090B585B000AF786060
:400E80000F23FC187B68181CFFF7A6FF031C2370284B1B78DBB21A1C012313400CD00F23FB181B78002B07D10F23FC187B68181CFFF796FD031C23701E4B1B78DBB21A1C3A
:400EC000012313400CD00F23FB181B78002B07D10F23FC187B68181C00F096FA031C2370144B1B78DBB21A1C012313401FD10F23FB181B78002B16D00823FB1812229A70B4
:400F00007B689A890823FB181A800823FB180F22BA181278DA707B680822BA181868111C0DF0D8FC03E07B6818680DF05FFDBD4605B090BDA721002080B582B000AF7860E7
:400F40007B68002B0AD0074B1B78DBB21A1C0123134003D07B68181C00F048FCBD4602B080BDC046A721002080B500AF034B00225A70024B00221A70BD4680BDA421002030
:400F800080B582B000AF7860BD4602B080BDC04680B500AFBD4680BD80B584B000AF78600E23FB1800221A707B689B79002B1CD10F23FB1800221A7012E00F23FB181B787D
:400FC0007A68D35C002B04D00E23FB1801221A700BE00F23FB181A780F23FB1801321A700F23FB181B78052BE7D90E23FB181B78181CBD4604B080BD80B582B000AF021C31
:40100000BB1D1A80BD4602B080BDC04680B582B000AF7860BD4602B080BDC04680B586B000AF021C3960FB1D1A70B14B1B78DBB201221343DAB2AE4B1A70FB1D1B78712B02
:4010400000D939E19A00AB4BD3181B689F460C23FB1807221A700C23FB1800225A700C23FB18181C03F0ACFF0C23FB1807221A700C23FB1801225A700C23FB18181C03F0D6
:401080009FFF9D4B1B68181CFFF786FF031E11D0994B1B68181C01F0D9FF974B1B68181C0021FFF755FE944B1B68181C0121FFF74FFE0DE0914B181C01F0C8FF8F4B181C51
:4010C0000021FFF745FE8D4B181C0121FFF740FE03200CF08DF90823FB183F221A700823FB1800225A700823FB18181C0CF09EF9834B04221A70E0E03B68181CFFF740FFED
:40110000DBE03B681A787F4B1A70D6E03B683B613B691B78002B18D13B695B78002B0BD1794B0222DA80784B18229A80764B774A1A603B69744A5A606D4B1B78DBB2012241
:401140009343DAB26A4B1A70B7E0B6E0684B1B78DBB21A1C2023134016D16D4B1B78102B02D16B4B0522DA706A4B1A78684B101C191C0CF04DFA5E4B1B78DBB201221343BB
:40118000DAB25B4B1A7098E097E03B68181CFFF73DFF92E03B68181CFFF738FF584B02221A708AE0564B04221A7086E0544B1B78022B40D04E4B1B78DBB21A1C01231340BE
:4011C00039D04B4B1B78DBB21A1C042313400BD04B4B03221A70464B1B78DBB204229343DAB2434B1A7026E0414B1B78DBB21A1C082313400BD0424B04221A703C4B1B7877
:40120000DBB208229343DAB2394B1A7013E03C4B1B78032B0FD13A4B04221A703E4B1B78002B08D10120FFF729FD031E03D1344B03221A7041E040E03B681B88181CFFF706
:40124000DBFE3AE0334A3B68111C1A1C0223081C111C1A1C01F0ADFE2A4B00221A70FFF797FE2AE0FFF780FE27E03B685B88162B05D81623FB183A6852881A8003E016235D
:40128000FB1817221A803B681622BA1811881A8800231204120C1B0C1B041343181C0DF023FB0AE03B68181CFFF7E6FD05E03B68181CFFF741FE00E0C0460D4B1B78DBB235
:4012C0001A1C112313400FD0094B1B78DBB201229343DAB2064B1A70104B1B68FA1D11783A68081C111C9847BD4606B080BDC046A7210020AC440100440C00203C0C002081
:401300009E210020A02100208C100020A80B0020200D0020A4210020A62100209421002080B500AFBD4680BD80B500AF024B00221A80BD4680BDC0469810002080B582B0EA
:4013400000AF7860024B7A681A60BD4602B080BD9410002090B587B000AF041C081C111C3B60FB1D221C1A70BB1D021C1A707B1D0A1C1A701623FB1800221A80FB1D1B78F5
:40138000032B03D8BB1D1B78012B04D91623FB1801221A802FE0FB1D1A78BB1D18781949131C5B009B181B185B00CB189A880823FB181A810823FB181B89002B17D07B1DEF
:4013C0001B789AB20823FB189A800823FB183A681A600823FB18181C002100220EF03EF8031E08D01623FB1801221A8003E01623FB1801221A801623FB181B88181CBD465F
:4014000007B090BD7446010090B589B000AF78601E23FB1800221A701D23FB1800221A70B04B1B68002B00D154E11F23FB1800221A7044E17B6899891F23FB181A78AA4836
:40144000131C5B009B185B00C3189B8899420ED07B6899891F23FB181A78A348131C5B009B185B00C3185B88994200D020E10C23FB187A6812881A800C23FB181F22BA1897
:4014800012789A707B681A1D0C23FB185A607B6899891F23FB181A789348131C5B009B185B00C3185B88994200D077E01F23FB181B78032B4ED17B685B681A22BC18181C44
:4014C000FFF776FC031C23801A23FB181B88002B40D01F23FB181A780823FB18101C01210422FFF737FF031E34D11823FC180823FB18181CFFF75CFC031C23801623FC188B
:401500000823FB180233181CFFF752FC031C23807B685B681A22BC18181CFFF749FC031C23801A23FB181B88002B13D01A23FA181823FB1812881B889A4207D31A23FA1837
:401540001623FB1812881B889A4203D91E23FB1880221A701E23FB181B78002B00D09BE07B681A1D7B681E217C18101C00211A1C40230DF0A9FF031C23701E23FB181B7859
:40158000002B00D088E0574B1B68AA22FF32111C0C22BA18081C111C98477DE07B681A1D7B681E217C18101C00211A1C40230DF08BFF031C23701E23FB181B78002B6BD1AF
:4015C0001F23FB181A784849131C5B009B185B00CB185B885A1E4549131C9B009B189B00CB185A6880235B0113401FD07B685B68181CFFF7DDFB031C1A1C012313409BB250
:40160000002B09D0374B1B68D22251000C22BA18081C111C984709E0324B1B68A622FF32111C0C22BA18081C111C98471F23FB181A782D49131C5B009B185B00CB185B8832
:401640005A1E2A49131C9B009B189B00CB185A6880239B0113401FD07B685B68181CFFF7A7FB031C1A1C022313409BB2002B09D01C4B1B68D32251000C22BA18081C111C30
:40168000984709E0174B1B68A822FF32111C0C22BA18081C111C9847154B1B78DBB201229343DAB2124B1A701D23FB1801221A701F23FB181A781F23FB1801321A701F23FE
:4016C000FB181B78032B05D81D23FB181B78002B00D1AFE61E23FB181B78181CBD4609B090BDC04694100020744601002C420100A721002090B589B000AF0C243C19208070
:40170000081C111C7B600B23FB18021C1A700A23FB180A1C1A70314B1B78022B05D01E23FB180422FF321A8051E00B23FB181A782B49131C5B009B185B00CB189B885A1EC0
:401740002849131C9B009B189B00CB1808339B685B68181CFFF72CFB031C1A1C022313409BB2002B05D11E23FB180222FF321A802DE00B23FB181A781949131C5B009B18CE
:401780005B00CB185A881023FB181A811023FB187A681A600A23FB181B789AB21023FB189A801E23FC180C23FB181022BA181868111C0DF0CDF8031C23801E23FB181B8844
:4017C000002B04D11023FB181A89074B1A801E23FB181B88181CBD4609B090BD9E210020744601002C4201009810002080B586B000AF78601623FB1800221A702D4B1B682A
:40180000002B54D02C4B1B88002B50D01723FB1800221A7041E01723FB181A782749131C5B009B185B00CB185A88234B1B889A422CD10C23FA187B68111C1A1C0223081C74
:40184000111C1A1C01F0B5FB0C23FB181722BA1812789A700C23FB1800225A60184B1B78DBB201229343DAB2154B1A70124B00221A80104B1B68D42251000C22BA18081C11
:40188000111C98471623FB1801221A701723FB181A781723FB1801321A701723FB181B78032B04D81623FB181B78002BB3D0BD4606B080BD94100020981000207446010086
:4018C000A721002080B584B000AF021CFB1D1A700E4B1B68DAB20F23FB1840218A431A70FB1D1B789B01DBB240221340D9B20F23FB180F22BA1812780A431A70034B0F2287
:40190000BA1812781A60BD4604B080BD0002044080B584B000AF021CFB1D1A700E4B1B68DAB20F23FB1840218A431A70FB1D1B789B01DBB240221340D9B20F23FB180F22D0
:40194000BA1812780A431A70034B0F22BA1812781A60BD4604B080BD0003044080B584B000AF021CFB1D1A700D4B1B68DAB20F23FB187F210A401A70FB1D1B78DB01D9B29A
:401980000F23FB180F22BA1812780A431A70044B0F22BA1812781A60BD4604B080BDC04600030440000000000230800803D00138FDD1C046C046C0467047EFF3108072B6F0
:4019C000704780F31088704790B585B000AF78600F23FC18FFF7F1FF031C2370094B7A6807210A40D104074A1268074802400A431A600F23FB181B78181CFFF7E2FFBD4609
:401A000005B090BD00010B40FFFFC7FF90B58BB000AF78602723FC18FFF7CFFF031C2370184B1A680C23FB181A60174B1A680C23FB185A607B68033B144AD35C1A1C0C2325
:401A4000FB189A60124B1A680C23FB18DA601C23FB18104A1A600C23FA181C23FB185A600D4B1C22BA181A600C4B0D4A1A600A4B1B682723FB181B78181CFFF7A2FFBD46EB
:401A80000BB090BD08010B4000010B409046010030001040B6EA000008001040040010401700008080B584B000AF78600023FB60154B154A126801210A431A60134B144AF8
:401AC0001A60144B134A1268802109020A431A607B68002B12D01023FB600CE0012000F0FBF800F019F8031E02D00023FB6005E07B68013B7B607B68002BEFD1FB68181C9F
:401B0000BD4604B080BDC04660F02E4078002E400220000010002E4080B582B000AF054B1B68012213407B607B68181CBD4602B080BDC0460C002E4080B584B000AF021C6E
:401B40003960FB1D1A7080239B05FB60FB1D1B781F2B02D9002000F091F8FB1D1B7810339B00FA68D3181B68BB60FB1D1B7810339B00FA68D3183A681A60BB68181CBD4663
:401B800004B080BD90B587B000AF021CFB1D1A70BB1D0A1C1A70BB1D1B78032B02D9002000F06CF8FB1D1B781F2B02D9002000F065F8FB1D1B7803221340DB0006337B6189
:401BC0001323FC18FFF7F9FE031C2370FB1D1B789B08DBB29B00144A944663441B68FB607B6903229A40131CDA43FB681340FB60BB1D1A787B699A40131CFA681343FB601F
:401C0000FB1D1B789B08DBB29B00074A94466344FA681A601323FB181B78181CFFF7D1FEBD4607B090BDC04600E400E080B582B000AF021CFB1D1A70054BFA1D12781F21D3
:401C40000A40012191400A1C1A60BD4602B080BD00E100E080B582B000AF021CFB1D1A70054BFA1D12781F210A40012191400A1C1A60BD4602B080BD80E100E080B582B056
:401C800000AF021CFB1D1A7001BEBD4602B080BD80B582B000AF786009E00C4B1B68181CFFF782FE7B680A4A944663447B607A6880231B029A42F0D8064B1B687A68534384
:401CC000181CFFF771FEBD4602B080BD340D00200080FFFF2C0D002080B582B000AF021CBB1D1A80BB1D1B88044A12785343181CFFF75AFEBD4602B080BDC046300D0020BB
:401D000080B500AF154B154A1268920092081A60134B134A1268920092081A60114B114A1268920092081A600F4B0F4A1268920092081A600D4B0D4A1268920092081A608C
:401D40000B4B0B4A1268920092081A60094B094A1268920092081A60BD4680BD0800044008010440080204400803044008040440080504400806044090B583B000AFFC1D28
:401D8000FFF71BFE031C2370074B074A126804218A431A6030BFFB1D1B78181CFFF711FEBD4603B090BDC04610ED00E090B583B000AFFC1DFFF701FE031C2370114B114A82
:401DC0001268520052081A600F4B104A128892B21A600F4B0E4A126804210A431A600D4B1B683B600220FFF7EFFD30BF094B3A681A60FB1D1B78181CFFF7E3FDBD4603B0DB
:401E000090BDC04600000B400C000B4052F1FF0F10ED00E000010B4090B583B000AFFC1DFFF7CBFD031C2370FFF76AFF114B114A1268802109060A431A600F4B0F4A12882F
:401E400092B21A600E4B0E4A126804210A431A600C4B0C4A1268FF218A43F1210A431A6030BFFB1D1B78181CFFF7ABFDBD4603B090BDC04600000B400C000B4050F1FF0F3A
:401E800010ED00E02C000B4080B500AF0E4B0E4A126801218A431A600B4B0B4A126802218A431A60094B094A126830218A4310210A431A60054B054A126807218A43012160
:401EC0000A431A60BD4680BD00F02E4000FF2E4080B500AF0E4B0E4A126802218A431A600C4B0C4A126807218A4302210A431A60084B084A126830218A4320210A431A604C
:401F0000034B034A126801210A431A60BD4680BD00F02E4000FF2E4080B500AFFFF7B4FF044B044A1268802109060A431A60BD4680BDC04600F02E4080B584B000AF7860E9
:401F40000C4B1B6801221340FB607B68002B02D0012B03D005E0FFF797FF06E0FFF7B8FF03E00020FFF78AFEC046FB68181CBD4604B080BD00F02E4090B583B000AFFC1D23
:401F8000FFF71BFD031C2370074B074A1268C02109020A431A60FB1D1B78181CFFF711FDBD4603B090BDC04600010B4090B583B000AFFC1DFFF701FD031C23700C4B0C4AC6
:401FC00012680C490A408021C9010A431A60084B074A126807490A40802109020A431A60FB1D1B78181CFFF7ECFCBD4603B090BD00010B40FF3FFFFF80B582B000AF786035
:402000007B68022B02D90020FFF738FE054B1B687A68D2000132D34001221340181CBD4602B080BD10020B4080B584B000AF786039607B68022B02D90020FFF71FFE7B6819
:40204000181CFFF7D9FF031E15D10C4B1B687A68D200111C03228A40D2431340FB603B68032213407A68D2009340FA681343FB60024BFA681A60BD4604B080BD0C020B40BF
:4020800080B584B000AF786039607B68002B02D07B68012B01D1012300E00023002B02D10020FFF7EBFD7B68181CFFF7A5FF031E16D10D4B1B687A68D2000232111C0122E7
:4020C0008A40D2431340FB607B68DB0002331A1C3B689340FA681343FB60034BFA681A60BD4604B080BDC0460C020B4080B582B000AF7860144B144A11687A680A431A6057
:402100007B680122134005D0C0460020FFF774FF031EFAD07A6880235B00134005D0C0460120FFF769FF031EFAD07A6880235B02134005D0C0460220FFF75EFF031EFAD00F
:40214000BD4602B080BDC04610020B4080B584B000AF786039607B68002B02D07B68012B01D1012300E00023002B02D10020FFF785FD174B1B689B0F9B0701D1C92300E034
:402180005D23181CFFF7A8FD124B1B68FB607B681B011A1C104B9340DA43FB681340FB600C4B7A681201111C3A688A40111CFA680A431A60064B1B689B0F9B0701D1432371
:4021C00000E01F23181CFFF787FDBD4604B080BD0C020B4008020B40FFFF000080B582B000AF7860084B084A11687A68074802400A431A60C046044B1B68044A1340FAD1E5
:40220000BD4602B080BDC04610020B400808080080B584B000AF021CFB1D1A700E4B1B68DAB20F23FB1820218A431A70FB1D1B785B01DBB220221340D9B20F23FB180F22EA
:40224000BA1812780A431A70034B0F22BA1812781A60BD4604B080BD0002044080B500AF00F032F8BD4680BD80B500AF064B064A1268802109060A431A6000F019F800F0F7
:402280001FF8BD4680BDC0460000244080B500AF064B1B78002B04D1FFF7E0FF034B01221A70FFF7E1FFBD4680BDC0469C10002080B500AF0920FFF7B9FCBD4680BDC046DF
:4022C00080B500AFBD4680BD80B500AF234B234A126823490A401A60224B00221A60224B224A1A60224B234A1A60234B00221A60224B00221A60224B224A1A60224B0022AC
:402300001A600920FFF7A6FC09200321FFF73AFC1E4B0920191CFFF70FFC1D4B00221A601C4B00221A601C4B00221A601B4B1422FF321A601A4B00221A601A4B00221A60CE
:40234000194B10221A70194B00221A80184B00221A60184B00221A60BD4680BD70002440EFEFFFFF0000244060002440770800800003244007030080040324401003244035
:40238000000224400701008004022440D5230000C80E2440880E2440480F2440080F2440C80F2440880F2440A8210020B6210020BC210020B021002080B500AF044B1B68A9
:4023C000102213401B09DBB2181CBD4680BDC0460000044080B582B000AF00233B60C04B1B68002B02D0BE4B1B689847BD4B1B680122134002D0BC4B00221A60BB4B1B7810
:40240000DBB220221340DBB2002B38D0B84B1A6880235B0013400AD0B64B1B889BB2C022920013439AB2B34B1A8001233B60B04B1B68012213400AD0AE4B1B889BB2902243
:40244000920013439AB2AB4B1A8001233B603B68002B14D0A54B1B78DBB201221340DBB2002B01D0012300E00223A24A128892B213439AB29F4B1A809C4B00221A709B4B86
:402480001B78DBB220221340DBB2002B00D1A4E1974B1B681022134018D0974B10221A60924B1B78DBB201221340DBB2002B01D0012300E002238F4A128892B213439AB27B
:4024C0008C4B1A80894B10221A70AAE1874B1B78DBB208221340DBB2002B29D0844B1B68022213400ED0844B02221A60814B1B889BB28822920013439AB27E4B1A800123FB
:402500003B6015E0794B1B78DBB201221340DBB2002B03D0754B25221A7009E0734B24221A70764B1B68002B02D0754B10221A606E4B1B78DBB204221340DBB2002B00D196
:4025400013E16A4B1B78DBB201221340DBB2002B5BD06C4B1B680822134033D06A4B1A686A4B1B681F211940694B1B68CB18D31A7B607B68082B02D908237B600CE07B68CF
:40258000002B09D1634B634A126863490A401A6008237B6001233B6010E0604B1A685C4B1B68D2185E4B1B68DBB21370584B1B685A1C574B1A607B68013B7B607B68002BDF
:4025C000EBD11EE04F4B1B680422134019D0534B1A684F4B1B68D218514B1B68DBB213704B4B1B685A1C4A4B1A60494B1A68464B1B689A4203D24B4B04221A6001E0012398
:402600003B60494B494A1A60AFE0394B1B680222134032D0384B02221A60454B1B681F221A40434B196880231B020B4001D0012300E00023D2183F4B1B689A1A3D4B1A60C1
:402640003C4B1A683C4B1A602A4B1B889BB28422920013439AB2274B1A80384B374A1268802149020A431A60344B344A126834490A401A6001233B6077E0324B1B681022D4
:40268000134067D022E02B4B1A681C4B1B689A421BD21A4B1B685A1E264B1B689A4205D1294B40221A60164B40221A60274A284B1968204B1B68CB181B78DBB213601D4B1F
:4026C0001B685A1C1B4B1A6000E005E0184B1B681F221340082BD6D11B4B10221A6044E0A01000208C0E2440880E2440A82100200C0F2440B6210020000F2440B82100201F
:40270000880F2440CC0F2440C821002008032440BC21002060002440FFFEFFFFC42100204003244068002440C00F2440ED0F000008022440AC210020B021002004022440CE
:40274000FFFFFEFF8C0F2440800F244040022440C0210020344B1B684022134005D0334B1A68334B1A6001233B603B68002B58D0304B304A126830490A401A602F4B002244
:402780001A602F4B00221A602E4B1B78DBB202221340DBB2002B15D02B4B1B78DBB201221340DBB2002B01D0092300E00A23274A128892B213439AB2244B1A80224B602225
:4027C0001A702EE0224B234A126820210A4001D0182200E010221A6023E01B4B1B78DBB210221340DBB2002B1BD11B4B1A4A1268520052081A60144B10221A700D4B0D4AE5
:40280000126816490A401A600A4B0A4A126814490A401A60104B104A1268802109060A431A60BD4602B080BD8C0F2440AC210020B021002060002440FFFEFFFFC80F244048
:40284000880F2440B4210020A8210020B6210020680024406400244000002440FF5FFFFFFFFCFFFF80B582B000AF78600A1CBB1C1A80BB1C1A887B681A60BD4602B080BDEE
:4028800080B582B000AF78600A1CBB1C1A80BB1C1A887B681A60BD4602B080BD80B584B000AF494B1B78DBB21B02484A1278D2B21343FB60464B1B78DBB21B02454A1278AA
:4028C000D2B21343BB60BB68434A934207D1FB68072B04D1414BBB600423FB6009E0BA68D4231B019A4204D1FB68042B01D13B4BBB603B4BBA681A603A4BFA681A603A4B17
:402900001B78DBB21B02394A1278D2B21343FB60FA6880239B019A4202D0FB68002B01D1334BFB60334BFA681A60334B1B78DBB21B02324A1278D2B21343FB60FB68304A63
:40294000934206D0FB682F4A934202D0FB68052B01D12D4BFB602D4BFA681A602C4B1B681B097B602B4B1B68AA2B29D17B68012B26D9214B1B78DBB20E2B21D1264B1B7813
:40298000DBB29BB21B0299B2244B1B78DBB29AB2BB1C0A431A80224BBA1C12881A60214B1B78DBB29BB21B0299B21F4B1B78DBB29AB23B1C0A431A801C4B3A1C12881A60BF
:4029C000BD4604B080BDC046D9F0FF0FD8F0FF0FDFF0FF0FDEF0FF0F580B0000580D00006C002E4074002E40DBF0FF0FDAF0FF0F0220000078002E40DDF0FF0FDCF0FF0F85
:402A00000F0F000005050000050F000080002E40EC0F00F0E00F00F06DF2FF0F6CF2FF0F84002E406FF2FF0F6EF2FF0F94002E4080B582B000AF021CBB1D1A80BB1D1B88D7
:402A4000181CFFF749F9BD4602B080BD80B500AF00F0DEF8BD4680BD80B500AF00F0E2F8BD4680BD80B500AF00F0DCF8044B181C00F09CF8032000F0A5F8BD4680BDC0467B
:402A8000392C000080B500AF024B181C00F07CF8BD4680BD392C000080B500AF0223FF33181CBD4680BDC04680B582B000AF78602B23181CBD4602B080BDC04680B582B0BF
:402AC00000AF78602B23181CBD4602B080BDC04680B582B000AF78602B23181CBD4602B080BDC04680B582B000AF78602B23181CBD4602B080BDC04680B582B000AF786017
:402B00002B23181CBD4602B080BDC04680B582B000AF78602B23181CBD4602B080BDC04680B582B000AF78602B23181CBD4602B080BDC04680B582B000AF78602B23181CDB
:402B4000BD4602B080BDC04680B500AF2B23181CBD4680BD80B582B000AF021CFB1D1A702B23181CBD4602B080BDC04680B582B000AF786039602B23181CBD4602B080BD6C
:402B800080B500AFBD4680BD80B582B000AF786000F048F87B68181C00F008F8032000F011F800F035F8BD4602B080BD80B582B000AF7860024B7A681A67BD4602B080BD11
:402BC0000000002090B585B000AF021CFB1D1A700623FB600B23FC18FEF7EFFE031C23700A4B0A4A1268C0218A43111CFA1D1078FA689040021C0A431A600B23FB181B78EA
:402C0000181CFEF7DEFEBD4605B090BD0CE400E080B500AF024B802252011A60BD4680BD00E100E080B500AF024B802252011A60BD4680BD80E100E080B500AF11F0A4FA75
:402C4000BD4680BD002243088B4274D303098B425FD3030A8B4244D3030B8B4228D3030C8B420DD3FF22090212BA030C8B4202D31212090265D0030B8B4219D300E0090A3E
:402C8000C30B8B4201D3CB03C01A5241830B8B4201D38B03C01A5241430B8B4201D34B03C01A5241030B8B4201D30B03C01A5241C30A8B4201D3CB02C01A5241830A8B426A
:402CC00001D38B02C01A5241430A8B4201D34B02C01A5241030A8B4201D30B02C01A5241CDD2C3098B4201D3CB01C01A524183098B4201D38B01C01A524143098B4201D3DE
:402D00004B01C01A524103098B4201D30B01C01A5241C3088B4201D3CB00C01A524183088B4201D38B00C01A524143088B4201D34B00C01A5241411A00D2014652411046EB
:402D40007047FFE701B5002000F0FCF802BDC0460029F7D003B5FFF775FF0EBC4243891A1847C04603460B437FD4002243088B4274D303098B425FD3030A8B4244D3030B59
:402D80008B4228D3030C8B420DD3FF22090212BA030C8B4202D31212090265D0030B8B4219D300E0090AC30B8B4201D3CB03C01A5241830B8B4201D38B03C01A5241430BA6
:402DC0008B4201D34B03C01A5241030B8B4201D30B03C01A5241C30A8B4201D3CB02C01A5241830A8B4201D38B02C01A5241430A8B4201D34B02C01A5241030A8B4201D327
:402E00000B02C01A5241CDD2C3098B4201D3CB01C01A524183098B4201D38B01C01A524143098B4201D34B01C01A524103098B4201D30B01C01A5241C3088B4201D3CB00AA
:402E4000C01A524183088B4201D38B00C01A524143088B4201D34B00C01A5241411A00D201465241104670475DE0CA0F00D04942031000D34042534000229C4603098B42C0
:402E80002DD3030A8B4212D3FC22890112BA030A8B420CD3890192118B4208D3890192118B4204D389013AD0921100E08909C3098B4201D3CB01C01A524183098B4201D304
:402EC0008B01C01A524143098B4201D34B01C01A524103098B4201D30B01C01A5241C3088B4201D3CB00C01A524183088B4201D38B00C01A5241D9D243088B4201D34B0063
:402F0000C01A5241411A00D20146634652415B10104601D34042002B00D54942704763465B1000D3404201B5002000F00BF802BD0029F8D003B5FFF715FF0EBC4243891A85
:402F40001847C0467047C0460E4B70B500251E1C0D4CE41AA410A54204D0AB00F35898470135F8E711F0ACFB084B00251E1C084CE41AA410A54204D0AB00F358984701357C
:402F8000F8E770BDCC460100CC460100CC460100D446010030B50024944208D0035D651C0C5DA34201D0181B02E02C1CF4E7002030BD002310B5934203D0CC5CC4540133B1
:402FC000F9E710BD031C8218934202D019700133FAE77047134A1088810703D08107890F401A001D11791030484381B25088820703D08207920F801A001D800040180A49C0
:403000004030098980B2CA0701D0503080B2890706D504495422091F09785143081880B2704700003E0D0020A410002010B501F0FDFE10BD10B501F00FFF10BD10B501F090
:4030400013FF10BD10B500F04FFA10BD10B50749044609780220002907D1204601F04CFF002802D120460AF0B9FA10BDA80E002070B504460120002C12D02368002B0FD01D
:40308000616800290CD0074D06222889208118462968FFF78EFF6968606809780170002070BD0000A4100020FFB585B0002768460E9D07734C481C460078002802D00820E3
:4030C00009B0F0BD10990F9801900095029105A807C800F0FBF80028F2D16946264603AB84460873002C19D0002115E08A00B75A082F09D990198078002805D0083FB7523C
:403100001878401C187005E0002915D00027B75290198770491CC9B2A942E7D360460028CED10F9800280AD0109901F033FA0006000E04D00120C3E701208446EEE701F092
:403140008BFE2948002101610C300599016021888180022D03D3A1798171A17AC17100211EE0481C19E082008B00A75AE65ABE46BE4211D26F463E80B4461E190296B67874
:40318000BE7001967646E6521719029EBB78B3706646A652019EBE70401CA842E3D3491CA942DED3114800906846037B22460799069800F013F9002882D168460A4C007B11
:4031C00060700A4801F078FE0028B4D1204607490C3007F02DFA0028ADD107F047FA0028A9D1012121706BE7380D0020A4100020F8B5054633480E460078002802D002246C
:403200002046F8BD002E5BD000242F49002D16D02A89D0070DD02868002808D003881B3BE12B04D24088FB2801D81B2801D2012409E0900707D56868002804D1F7E700208B
:40324000088108604860002CDAD11F482F8907811C481B21801D018041800421017119490020891C0870F80705D016480622801D2968FFF79EFE1449B80703D56A68114849
:40328000127882700F480D46801D0860001F486001F058FE0B48801D01F046FE28890DF0C1F928890DF028FB03461033FFF792FE1F21C018890140180249308088809FE7E2
:4032C00001249DE7380D0020A4100020FFB58446384F1C460020BB883F78054602460646002F11D100290ED0029999420BD36146002908D0002C06D00A99002906D02E4B5B
:403300000B99994202D2012004B0F0BD002144E0AB001F19BF78002F3BD0E35A002B38D07B43591889B22B0000F04AF8050410161C253100A7782388BC46FF27233BEB37D5
:40334000BB4222D26346032B1FD322E0A388002B1FD0302B19D31CE02389002B19D0282B13D316E0A289002A13D01346134F233BBB420AD20DE0268A002A0AD033460F4F78
:40338000233BBB4201D2964203D901200EE0002001E000280AD16D1CEDB2099B9D42B7D31C2463435B1802998B42ACD89642AAD8AAE70000380D002079020000BAFF00001A
:4033C00030B47446641E2578641CAB4200D21D46635D5B00E31830BC18470000FFB583B0002469460C801F4606468C80002806D00598002803D004983043800701D00124E8
:4034000067E0002FFBD03449049809888842F6D3FFF738FBFFF720FB00F010FC002856D100F06CFD002852D12C49084601F0E6F805042D0C4BD12A4804990660818000215E
:40344000C18007810C98007AC00704D0684601F01CFD040007D10C98007A800703D501A801F01CFD0446BF1DFEB2002C21D13146059800F05DF804001BD10DF04BFA04067D
:40348000240E16D16A461088928808368518144AF1B29088D288AEB29319984207D3401B801A80B201F09AFB050007D000E0FF25012400F05BFA002D04D008E0F8B200F009
:4034C0001BF9F6E700F07EFA06490120087000F0C7FB204607B0F0BD3C0D00201D360000B01000204C0D002010B503480078012801D101F015FA10BD4C0D002070B5084BB9
:403500000446DA889E8800205518B54206D81D68AA182260DA885118D98070BD032070BDB01000200148008970470000B0100020F0B587B007460D46002089000090069158
:403540006846FFF7DBFF844600285DD1304800990160002117E02E4B88001A680629115406D22C4C0419667882185670628805E0C419203CA67A8218567022891B68C018D3
:40358000491C4280C9B2A942E5D300242DE0601CC2B2059025E01E4FA30039689600581840887118039604904E88B04217D938466F46FE80B6464F786E4677710297049FD2
:4035C0004F800168039F5E18767879184E700168764659184E800068029F18184770521CD2B2AA42D7D30598C4B2AC42CFD36046002809D168460699FFF780FF8446002863
:4036000002D1054900980860604607B0F0BD0000500D0020F8460100540D00207047000010B5002809D005494A68002A05D0011F08788000105801F07FFA10BD500D00206A
:4036400010B50446FFF76EFFC0B2801DA0420CD307484068002808D0A100405801F0DEF9002801D00470001D10BD002010BD0000500D0020F8B516460D460446FFF752FF62
:40368000C0B2801DA04203D20020C0430090F8BDB2B2E9B2684601F0E7F90099481C03D0024AA000526811500098F8BD500D0020F8B50746FFF736FF801DC6B20A49002010
:4036C00005460C680DE06178002907D06188B94202D32078FFF7B4FF002804D1241D6D1CEDB2B542EFD3F8BD500D002010B5002801D0FFF795FF10BD70B5064609480025FE
:4037000004680BE06178002905D062882078121D0023FFF7AFFF241D6D1CEDB2B542F1D370BD0000500D0020FFB581B00A9C16002BD000F0F1F80546042826D0214F002C97
:403740000BD02046FFF7B4FF2901C919486000281BD022460499FFF72CFC1A4928010E5046187481019805707D20029CC000444300F0C0F8009004280AD000F055FAA04249
:403780000ED800F051FA201A06E0FF2005B0F0BD204600F0ADFA0020B08135720020F5E700F042FA074600F0B9FA381B87B23846012100F0EFF8009801010248081887812B
:4037C000E6E70000BC100020F8B5060117483418217A042903D0A089002802D018E00020F8BD00F021FA054600F098FA00F0A2F804280DD001010D480F18B88941198DB263
:40380000002100F0C7F80020B881284600F070FA6068064D002801D0FFF768FF042020720020A8516081A081D9E70000BC100020FEB500266A463046012325490501691891
:403840000D7A042D02D0898900291BD000211154401CC0B20428F0D300246846005D002830D01B482101081841894768056802910021016041600422418102728181002E31
:4038800002D015E01354E3E700F054F804280ED001010F480818019086890021304600F079F8019800218181304600F021FA0126002D07D038460299A847002F02D03846CA
:4038C000FFF714FF641CE4B2042CC6D3FEBD0000BC1000200EB5002005216A460090118150810348694600680DF089FE0EBD0000580D0020074A0020010189180B7A042B8F
:4039000002D08989002903D0401CC0B20428F3D370470000BC1000200549002002015218127A042A03D0401CC0B20428F6D37047BC10002030B50A4B04200A4C00210A0196
:403940001219157A042D06D09289002A03D09A4201D808461346491CC9B20429EFD330BDFFFF0000BC1000207047000030B50020074C05460423020111190B72A5504D609F
:40398000401C4D81C0B28D810428F4D330BD0000BC10002030B5094C00231A011219157A042D04D09589002906D02D1895815B1CDBB2042BF1D330BD2D1AF7E7BC100020ED
:4039C000002070471CB5002469460C70142001902346054A05480DF017FE04480068401C00D1FF2420461CBD413A0000580D00203EB5124A0146FF20002301241268002911
:403A00000DD0012914D0042908D104206946009308814B8110460DF0F2FD80B23EBD6846009304814381694610460DF0E3FDF4E768460093048143816946EBE7580D002094
:403A400070B545890468416800890300FFF7B8FC08280509091E22282628002005F0FAFC1EE0022908D0C8B22A4621460BF08AFF2046FFF73BFE13E002202A4621460BF0AE
:403A800081FF2946204600F00DF809E000200DF0A5FA05E02046FFF7CBFE01E0FFF770F8002070BD014B0022DB6818475C0D002070B5448905680089022803D0032809D0FF
:403AC000FF2070BD2246094C0023A46829460120A04708E0FFF7AEFA241DA2B200232946022006F056FC002070BD00005C0D0020704700000248002141600180418070476E
:403B00005C0D002070B50C46002186B016460391012802D0022859D116E003A9012006F098FC01281BD1039D324621462846FFF740FA0095287801900220694608814E8181
:403B40006846FFF7B5FF41E0214D002B686809D0049004A9022006F07CFC01281DD0022006B070BD002812D0298840182146FFF720FA28880024801980B228806988091DB6
:403B8000884206D12C801348FFF792FF03E00320E6E788421AD96C6018E004986860E278A378110219430B4A698000231060E3565360032313815181A1788170E178C1705D
:403BC0006178417021780170042028800020C7E75C0D0020FC1000203EB515460C46022803D004280CD000203EBD0091019002206946088107484A8100680DF000FD07E043
:403C00000BF0C0FE044B0022DB6829462046984701203EBD580D00205C0D0020014AD160906070475C0D0020034801688068081A0A214843000970470811002010B5FEF766
:403C400011FF482204490548FFF7B3F903490120C870002010BD0000144701000C15002010B5FEF7F3FE10BD70B5134C2368002B08D0207B1149C20705D040084000207327
:403C80008868A08070BD88680B4AA18880B29268814203D90A4D691A091802E0814202D2411A5118A160A080A0689842EAD30DF0C3FC00F013F870BD08110020C0102E403B
:403CC000FFFF000010B508461946FFF7A7FF10BD704710B5FFF780FF10BD000003480021016041608160C1607047000008110020024610B5FF20002A0CD0FFF7EFFF064C65
:403D00000321207B0843207310010A21FFF720F82060002010BD00000811002000B504480A21806848430209FFF7D8FF104600BD081100200248007B8007C00F7047000061
:403D40000811002010B544490868002802DA434B01221A70022290430860414800693E49C00B4031096A08425ED0012000F0D0FA3B483C497C30FEF783FD37480E216C30BC
:403D8000FEF77EFD364820218430FEF779FD344814219C30FEF774FD3148FF21C131A430FEF76EFD2E48FF212F31B030FEF768FD2B482D49BC30FEF763FD29482B49AC30F8
:403DC000FEF75EFD29492648491CB430FEF758FD23482749B830FEF753FD21482549CC30FEF74EFD1E4824490830FEF749FD1C482249A830FEF744FD194821498830FEF74A
:403E00003FFD17481F498C30FEF73AFD14481921C9029030FEF734FDFEF740FDFEF73CFEC0B2022802D00FE0FF2010BD16491748FEF726FD15481649001DFEF721FD134889
:403E400000210830FEF71CFD54200449C043891C0870002010BD000000F02E406C0D002000002E4055650000320300002F3F00003102000010520000EC160000FA120000A8
:403E800031D000003AE300009956000080012E40F80F000070B50646581C80B245086D00002408E0304600F0C1F81055000A1119A41C4870A4B2AC42F4D3D80705D0D0184B
:403EC0002038D15CC47FD454C17770BD30B50A4C002100195B1E07E0541864782502545C2C430480891C89B29942F5DB994201D1515C018030BD000000102E4010B5FF20D1
:403F000000F006FA0F49FF2048700E481021801D41800121417001700A490020C91C4870FFF710FF04000AD100F01AF907210648FEF798FC044807211830FEF793FC20469D
:403F400010BD00006C0D0020CC112E4070B5002405465B1E0AE0284600F068F8010A161971702D1D1055A41CADB2A4B29C42F2DB9C4203D1284600F059F8105570BD0000FE
:403F800070B500210A4D5B1E0AE0541864782602545C344346193480001D891C80B289B29942F2DB994202D1515C4019018070BD00102E40F0B50599091FCFB200217E1EF7
:403FC0000BE0541864782502545C2C43164D45192C80001D891C80B289B2B142F1DBFC0712D01C78515C24020F4A0C4381180C809C785D78001D210280B2294384182180D0
:40400000001D80B2D9780CE059781A7809021143054A84182180001DD9789B78090280B2194380180180F0BD00102E40014940180088704700102E4010B50B4900204870F8
:4040400000F08EF8002000F089F9002000F076F907210648FEF706FC044807211830FEF701FC002010BD00006F0D0020CC112E4010B506480078012803D102210448FEF7DE
:40408000FFFB02490020C91E087010BD6F0D002070F02E4010B50B46062812D006DC01280CD0032801D1FFF7C7FF10BD0A28FCD00B28FAD105480078107010BDFFF71EFF51
:4040C00010BD1146184600F065F910BD720D0020F8B5204DAC6A0127A0071F4E002816DA307806280ED1286A384328621B480069F903084381B219481030FEF7C1FB0420F8
:4041000000F006F9134802212830FEF7ABFBE00711D0062000F0FCF80F49FF20C91E48707078002802D1686B38436863094801212830FEF797FBE0050BD53078042802D17D
:40414000052000F0E5F80348FF2101312830FEF789FBF8BD40F02E406F0D002000002E4010B503212348FEF78BFB0120FEF760FC20483038406A204C80076178800F8900E3
:4041800001431C480C38FEF77BFB6078002808D0401E022181401820FEF7CAFEC000083800E0B82081B21548FEF76AFB1348032109021438FEF764FB10481149B830FEF73E
:4041C0005FFB612189010F48FEF75AFB0D480321001FFEF755FB0C490C48FEF751FB0B480B496038FEF74CFB084801218838FEF747FB10BD70F02E40720D0020D8102E407D
:4042000090890000041E2E40FF0F000058122E4020900000044800684007400F022801D0002070470120704700010B4000B5FFF7F1FF002805D009480168C908C9000160B2
:4042400000BD0748016A490849000162054801690122D2039143016100BD000000010B4040F02E4000002E400849087806280BD148780749002803D1486B40084000486303
:40428000C86A01221043C862704700006F0D002040F02E4001480078704700006F0D002002484078022800D0012070476C0D002000B50300FFF784F8080D050D0B0705074B
:4042C000090D012000BD032000BD042000BD022000BDFF2000BD0000074A9168D26889B2064B92B2994204D105498A4201D1012100E000210170704780002E4033D0000022
:404300003FE3000001494870704700006F0D002010B50446FEF7A0FB072C01D9FF2C01D102480470FEF792FB10BD00006F0D002001494870704700006C0D002010B5064A4D
:40434000012805D01921C9021046FEF799FA10BD1D21C902F8E7000090002E4010B50A4A141D012808D009491046FEF789FA08492046FEF785FA10BD04491046891CFEF709
:404380007FFA0349491DF3E788002E4031D000003AE3000070B50C460546FEF77DFBC0B202280E49287804D0FF2810D04C280CD810E0FF2809D10A4AD0680004800F0328B4
:4043C00001D0087807E09069000A553803E00878207070BD4F382070087070BD6E0D002000002E40F0B50122002830D000292ED00424420600D00524792342065B06D21861
:4044000000D0641C034600221EE00C2516466E43104D00277519AF720E4F002ABB51696007D0661EB24209D10B4E86197606760E05E05E06760E8027BE1B00E080269B194E
:404440008919521C2E81D2B2A242DED300221046F0BD00009413002079020000074900200C2242435218927A012A05D0401CC0B20628F5D30020704701207047941300202A
:40448000F8B50F000446164609D0184D18496868A04202D94018A04201D38E4201D90120F8BD39462046FEF775FD00281BD0324639462046FEF77DFDF0B200210C224A4337
:4044C000521913895668F718A74208D90127A41B1B1B9772834206DAC01A1469C0B2491CC9B20629EAD30020F8BD0000941300207902000010B500F05DF80748054AC168D6
:4045000006480C46FEF755FD04492046FFF76AFF10BD000079020000780D002018110020002070470020054A002902D0012902D002E0506000E0906000207047780D002031
:4045400070B5084C154608460549A26889182A46FEF72FFDA0684019A06028B270BD000018110020780D00203EB50A226946FFF7E7FF044606480A2200686946FEF70AFDB8
:40458000002802D00020C0433EBD20463EBD0000780D0020002802D0044A914201D2FF20704703490A61C8600020704779020000780D00200248002141608160704700009F
:4045C000780D002070B5074C15460548626880182A46FFF755FF60684019606028B270BD18110020780D002010B503490A220968FFF7E8FF10BD0000780D002010B50F4AE9
:40460000002313600E4A13600E4B18600E4801600E49012008600E490860000290600E490C4808600D4914300860FF381538506000F0BCF800F0CAF9002010BDA40D0020A2
:404640008C0D0020B80D0020BC0D0020A80D0020980D0020DC1400209C0D0020B00D0020014610B50020002910D0094B1A689C685118A14209D25868196080188A0704D0F7
:404680008A07920F891A091D196010BD002010BD8C0D0020F8B50024164E671E321F3D463168136806E01422624310328A58521C1BD0641C9C42F6D36A1C14D02C461422FA
:4046C000544322460C3288500C214843FFF7C8FF3168002808510AD031680020103408517068401C70602846F8BD2546E4E73846F8BD00009C0D0020F3B50026F64381B055
:4047000000281BDB1E490968884217D80299002914D01B4F142204463F1D54432546396810354859401C09D0FEF796F938682F1F4159C359994203DBFEF788F93046FEBD96
:40474000214608310091465801590C20704308180C220299FEF72DFC0948761C001D0068C159B14200D100260549009A091D865008684159491C4151FEF768F90020FEBDA8
:40478000980D0020002803DB07490968884202D90020C043704704491422091D096850431030085870470000980D0020F0B500200D4A451E0346171F50600FE01426014607
:4047C000714314680E1DA3510C461668083433511668083435511468401C635039688842ECD30020F0BD00009C0D0020F3B50026F64381B0002841DB2349096888423DD817
:40480000029900293AD0204F142204463F1D54432546396810354859401C2FD0FEF71CF93868415900292BD0211D009146580C21005971430F46C1190C220298FEF7B9FBCC
:4048400011480021001D0068761C00590C34C0190160416081600C48001D00680159B14200D100260849009A091D865008684159491E4151FEF7EAF80020FEBD3046FEBD68
:40488000FEF7E4F8FAE70000980D0020FEB504460D4600201E49089E0860471E009001900290002C11D0486885420ED2002A0CD0002E0AD0642E08D808460C3001681C2071
:4048C00068430C18207A002801D03846FEBD0120226020721846FFF7DDFE6060401C13D06681A6810A4827610C3067610179A94200D205710021684601810A462846029B75
:4049000000F040F82846FEBD00202072DDE70000A40D002038B50124009400F039F838BDFEB50027164EFF433D4600240EE01C20316860430818017A002906D04068FFF75E
:4049400021FF002801D0254603E0641C3079A042EDDA681C12D01C2130684D434419FEF77BF869466068FFF741FF0546FEF76EF8002DD9D1216868468847D5E7FEBD0000C7
:40498000B00D002038B50024009400F001F838BD1FB500220C49541E0A60002811DB496888420ED808491C220C31096850430818406801A9FFF7A0FE401C02D0002004B023
:4049C00010BD2046FBE70000A40D0020F0B50021114A4D1E174611710C3F0B46BD6016E008461C2460431668041D355114680646235014680836A3551468361DA353044665
:404A000016680A34335318301468491C255078688142E5D30020F0BDB00D002038B500210091002811DB0F49097888420DDA0D4D04010C3529680859002807D0201D081866
:404A4000694600F06FF9002801D0002038BDFEF703F828680F34015D491E0155FDF7F6FF009838BDC00D0020F7B582B0002502986E1E06602E48D21C024017462D4A2C4665
:404A800010460C380178106805E02301C358002B0FD0641CE4B28C42F7D3711C28D03401211D40180191039900F02AF900281FD101E02646F1E71F48016820460C300F52EE
:404AC0001C480399026820460E30115419480399026820460F3011540398784300F0A0F8144900280968085102D00024009011E001251AE00F48016801980818009900F00C
:404B00002CF9002801D0012502E00098C0190090641CE4B203988442ECD3002D05D10298066004480179491C0171284605B0F0BDFCFF0000CC0D0020F8B50D4600216A46E3
:404B40008C461180002839DB23490978884235DA214B04010C3319680A59002A2ED020460C300B5A801C0E5C184670438018954224D3854222D2002006E007465F43BF1809
:404B8000AF4206D0401CC0B2B042F6D36046002814D0114E271DC8190C366A46294600F006F900280AD168460088012808D030682946C01900F0D1F8002803D00120F8BD7B
:404BC0000020F8BDFDF748FF30680F34015D491C0155FDF73BFFF3E7C00D0020F8B50F46002400F031F8002817D10C4900220B460C334A600EE021011D680E466A501D6894
:404C00000C36AA53B61C1D680F31AA551D68641C6A54E4B2BC42EED31A71F8BDC00D002000280BD0C01C074A81085068890053884118994203D893685160181870470020C3
:404C400070470000C00D0020F8B5064600200F4D009029700C0121466846FEF74FFC00280CD129460C3100980860301B001F84B221466846FEF742FC002801D0FF20F8BD2A
:404C80006C800098A8600020F8BD0000C00D0020F8B5002827DB19490978884223DA174C05010C342168485900281CD028460C30085A009028460E300E5C401C0E54206846
:404CC0002F1DC01900F064F800280CD12068002445590EE0094829460C300068C01900F03CF8002801D00120F8BD00982D18641CE4B2B442EED30020F8BD0000C00D00206A
:404D000030B50D4604000BD0A800FFF789FF6060002805D000202570C0436080002030BD012030BD70B50D46040005D0002D03D00220205E002801DA012070BDFDF78CFE06
:404D40000221615E60688900405828606088401E6080FDF77BFE002070BD70B50D46040007D0002D05D002212078615E401E814201DB012070BDFDF76FFE6088401C00B28F
:404D80006080616880000D50FDF760FE002070BD10B5040009D0227800216068FEF712F90020C0436080002010BD012010BDF0B500231D46002802D00224045F0AE0012012
:404DC000F0BD46689F00F6598E4201D1012503E05B1CDBB29C42F4DA15700020F0BD00000148007870470000D40D00207CB505460024FEF71FF9A8796946087000A806227F
:404E000029460130FEF7D5F80021684604F0E8FD0C2804D0072804D01F2804D004E0022402E0042400E0272420467CBD10B502280BD0032802D0042809D102E000F048F984
:404E400005E000F0F3F9FF2801D100F003FAFFF721FAFFF72DFA10BD10B500F02BFAFFF719FAFFF725FA10BD70B504460025FEF7E1F8002C06D0A079012803D8214602F0F1
:404E8000CDFC00E00125284670BD01460120002902D05020088000207047000001460120002905D003485422007850430880002070470000D60D002010B502460D49FE2041
:404EC0004870032410460CF0BDFE002810D10CF061FE00280CD105F019FB002808D100F0F3FB002804D104F0FFFF002800D10024204610BDD40D002070B500250446002879
:404F00000ED0A07901280BD8FEF794F8A0790028204602D003F05EF803E003F033F800E00125284670BD0000014610B50120002904D006220248FEF73CF8002010BD0000D7
:404F4000D80D002001460120002903D0087802490870002070470000D60D002010B5FFF799F9012801D1FFF79BF910BD38B504460120002C20D0617801291DD800290BD09C
:404F8000FF25E535FEF756F80C4828180088C0B22070072803D00EE0FF25CD35F2E70020694608706846FFF797F969460878012801D108202070002038BD000000102E4073
:404FC000F8B504460120002C26D06178012902D92278092A20D8002905D0FF25E5352078092803D004E0FF25CD35F8E708202070FEF720F82078114F114E08280DD00020CA
:40500000FFF7ACF970780128207810D00D4969180880FE2070700020F8BD0120FFF79EF90720B8810549203188800120F2E7B8810248217820308180EBE70000C0112E40ED
:40504000D40D002000102E4070B50E46050001D0002400E00C4C002C11D0E28A500609D5D107C90F022003F053F8E08A40218843E08204E0D107C90F012003F049F83146F1
:40508000284602F027FD70BD74150020F8B50546002004460D4E009013E022466946284601F04AF80098002801D00CF0ADFDA878214602F0FDFAA878214602F0EBFA641C19
:4050C000E4B2308AA042E8D8F8BD00002C160020FEB54E4DFFF7DEF8012849D14C480078002845D002F07EFC002841D004F01AF900283DD0474C6078C00703D000F0E6FC49
:40510000012835D0207E00287DD16078002600285BD0000706D540488089070B00F02EF9384370D13B484178684603F065FF044628793A4DA9784018C1B2A14261D802F0D7
:4051400051FC00285FD0344860300089314F0190203702F09DFA6846008802F0C7FA02F057FB2F490988884203D10120FFF7D0F849E02C49012008702648807B00281BD09F
:405180000198002818D04037F87E002814D12248603000884000A0420AD96878002807D102F0E4FF2049088A03221202104308822878002800D02E7002F0C6FA0120FFF700
:4051C000A1F800F0F5FB174C15E002F00BFC002819D0102402F01CFB214602F011FA02F085FA104C0120207002F0AEFA0020FFF789F800F0DDFB20780128B6D1FFF716F870
:4052000026700020FEBDFF20FEBD00004C1500206C0D002054150020A0102E40E40D0020F60D0020DE0D0020E0112E4010B50848FF244078002809D102F0D4FB012805D112
:40524000FEF716FF0720FFF763F80024204610BD5415002038B5FFF71DF8012801D0002038BD02F0BFFB00280AD0114C6078C00703D000F02BFC012802D0207E002801D09F
:40528000FF2038BD617800290FD0684603F0B4FE022806D96846008802F028FA012002F059FA0320FFF734F8D9E70020F7E700005415002038B51E4CFEF7ECFF042813D01B
:4052C000052811D0062812D003282AD007280AD100206946087002460120FEF7DBFEFEF7D9FF0128FBD138BD00F082FB38BD02F049FA00F07DFB02F0C5FA8007800F02283C
:40530000F4D10C4841880029F0D05B21095D0029ECD101210170A07D0140022002F0F8FE38BD02F033FA0120FEF7F2FF38BD000074150020E40D0020F8B50646002402F006
:4053400055FF0546304602F06BFF03460A480021068A0DE001228A401046174628401F40002803D0002F01D1224394B2491CC9B28E42EFD82046F8BD2C16002070B5002537
:405380002C460A4E03E0002C01D0002000E030460079002803D02046FFF7CEFF0543641C2406240EEFD0284670BD0000741500201CB50020694648706846FFF7D7FD01AA8E
:4053C00069460A20FEF766FE6946042008561CBD10B50C4601F082FA002809D00179002906D0C1788078224602F0FAFB002010BD022010BD01480078704700004C1500201E
:405400004030C07E002800D00120704700B500F001F800BD8C2148430749084A40186030417F491CC9B24177D289914201D300214177C8B270470000541500202C16002082
:4054400013B501F04BFA04000BD001F0E8FD002807D0214601AA0A310620FEF71BFE00201CBD02201CBD000010B50C4601F036FA00280AD001F0D3FD002806D02246044957
:405480000A20FEF707FE002010BD022010BD000035150020F3B581B0074601460026029802F09CFE0446002F01D0002500E0154D002D21D0284601F047FA032C04D13946D7
:4054C000029802F0E7FE06463846029902F0E2F8032C06D0002C10D00121384601F03AFB03E03146384603F0D1F8284601F0C0FF0221284601F0D6FFFEBD3846029902F064
:40550000C9F8FEBD7415002010B5044603F008FD002801D00C2010BD2078611C02F062FCFF2801D01F2010BD02F0A8FCFF280AD02178621C02F036F8044821780068026B5C
:40554000601C904710BD072010BD0000FC0D002010B503F0E5FC002801D00C2010BD02F023FC03480068C06A8047002010BD0000FC0D002070B50D46044610210CF084FA2B
:405580001021601806460CF07FFA334610221946204603F0F3FC102130460CF075FA02202870204604F0F8FB70BD0000F8B504464078217802028006870FE0781143A678B7
:4055C00009050002090D0643084601F087F900210546F2B2002812D0002C10D0022F0ED0032F0CD0002A0AD00279092A07D0002A05D0134A5A23527E1B5C9A4207D8288925
:40560000002104F0FEFA20460CF0FEFAFF21002914D10C48224600682946436930469847C0B2FF280AD128464030817EF2B2491C8176FF232146284600F0DDF8F8BD00007F
:405640000C150020140E00200020704710B5044603F066FC002801D00C2010BD2078611C02F0C0FBFF2808D002F0F8FA044821780068426B601C904710BD1F2010BD0000AF
:40568000FC0D002010B504F02FFC00F057F9002010BD10B5044600786178E2780843A17811430843217908436179084305D003F029FC002803D00C2010BD122010BD2046A3
:4056C00002F088FC002010BD10B5FDF7E5F902F0AFFD044803F07AFD02F0CAFA012000F003F810BD1C150020F1B586B003A8009005A8019025489F22817A1140817268460C
:40570000FDF7B6FC00283FD169460989C90705D01F4806990068C2686846904769460989890706D500282FD11A480068816A06988847002828D1184E002575707573757133
:40574000F575357675767575B570F570B5713746F5730120BC3738731F20F880FF2130467972A0300175457500F076FA00242046069901F0FFFB002803D1641C2406240E67
:40578000F5D0FD72BD72B57307B0F0BD0C150020140E0020FC0D00205415002070B505460E46084602F022FD0446304602F038FD0121A9400A46224001400A4301D001207E
:4057C00070BD002070BD10B50446084602F028FD0121A140014201D0012010BD002010BD10B5FEF757FD032804D101F0CFFF0120FEF78EFD10BDFEB51C4616460F4605467D
:4058000001F036FEA878FFF701FE02460190334639460094284600F00DF8002808D1A8780199FFF711FCFF2C02D138460CF0ECF9FEBD0000FFB585B005460E980C46FF283D
:4058400010D02B49C00009680A5840180179C0795278814201D9012601E09006860F6846038108E06078A1788006860FE0780002014368460181284601F0DCFB070007D094
:4058800021462846079A00F0EBFB384609B0F0BD304600F099FC04AE0346039002AA29460096204600F025FB3C20405D002818D0284601F0BFFB012813D06846008900960D
:4058C000C0B20190A878231DFF22079902F0B6F868460089039BC2B2A878079902F0F6FBD3E7684600890021C0B20091E9E70000100E0020F8B5104F002500242846FFF71C
:405900001BFD060012D00EE03046E040C007C00F07D02146284601F0B3FE21462846FFF7B9FD641CE4B2388AA042EDD86D1C2D062D0EE2D0F8BD00002C16002010B502F088
:4059400097F90020FFF7D0FE0CF0F4F9002010BDF8B5002400F0B4F80123012800D10124104F00203E4620360425082203E0002801D0002100E031460979002907D0012981
:405980000BD002290BD0114681402143CCB2401C0006000EEBD07C70F8BD1C43F7E72C43F5E700005415002010B5FFF7D1FF10BD70B50E4CFCF701F80546FEF76BFC062897
:4059C00002D02078012803D02846FBF7FAFF70BDFCF7D2F92846FBF7F4FFFEF75BFC0628F5D020780028E5D170BD0000DE0D002010B5FBF7E2FF0446FEF74CFC012809D09C
:405A0000FEF748FC022805D0FCF7B6F92046FBF7D8FFEEE72046FBF7D4FF10BD10B50B4681791943817103D08078114602F01CFB10BD10B582798A43827102D1807802F0FD
:405A400027FB10BD30B50C4C0220A28A0B4B9978002901D0022906D11D785B78EB18282B01D9032002E0032900D101205105490DC0020143A18230BDC0112E40DF0D002081
:405A800000B500F023F8002807D0012805D0032801D0042801D0002000BD012000BD014600B50020C90701D000F00AF800BD014600B50020C90701D000F002F800BD0000A5
:405AC00001480088000A704720102E400448008B410501D5042070474007800F7047000000102E4038B50446000610D5FFF7EEFF01280CD1684601F059FE6846007800F086
:405B0000B3FA012001F01CFD0220FFF74DFF0348006801692046884738BD0000FC0D002010B5034A0178117002F0C0F9002010BDDF0D002070B50446FFF7C2FF002801D0EA
:405B40000C2070BDA27B01211F48002A827801D00A4301E05208520082706279012A14D0C17849084900C170184D2868016820468847207901280CD06188208803F000F8CA
:405B80002080207904280FD015E0C2780A43C270EAE72868C168E01D8847E01D02F006FA0B48808C208006E02868C168E01D8847E01D02F0FBF9074920798870204602F028
:405BC00083F9002070BD000054150020FC0D00200C150020DF0D002008B50178FFF770FF814201D10C2008BD002914D0072069460870FFF745FF012807D10121684600F066
:405C00008BF8012801D0092008BDFFF71BFF02F08FF9012011E0FFF733FF012806D1684601F0C4FD6846007800F052FA02F076F9FFF746FF0028FBD10220FFF7B5FE0020F8
:405C400008BD000010B5034A0178517002F0ECF9002010BDDF0D002038B568460BF06AFF002801D01F2038BD01210098C90201804180002505714571857107214173857335
:405C800002F022F9009C202200212046FDF79AF925702A460021601CFDF794F9204602F005F9204602F0C0F900980BF0ADFF042200210248FDF786F9002038BDDF0D0020FD
:405CC0000346084800B5834209D8184600F006FE002804D00089984201D1012000BD002000BD0000FF0E0000074A9179491C8906890E917138220A4092014907090E11438B
:405D0000084302490840704754150020FF0E0000C006C00E70470000F8B507460E4600240D4803E0002C01D0002500E005462979002905D0641C2406240EF3D00020F8BDE2
:405D40000021204601F016F92E712046FFF7CCFF28813C700120F8BD7415002010B503F041F90222002100F003F801F02DFF10BD10B5094B40074907000F090F185A595AFA
:405D800040185043C0086421FCF7E2FF002800D1012080B210BD00005C470100F7B53D20405C88B015460C46002802D02878042802D200200BB0F0BD6946087200262046B9
:405DC000FFF71EFB012800D00126204603A938300191009023460327A17E34333246206A03F00EFA02A8089900900B46019120463A4603A9243003F0A1F802466846007A22
:405E00002870204601F0A2F81046D3E7FFB587B00C4605461078694608723D20005D1746002826D000262046FFF7EAFA012800D00126204603A93830019100902346A17EB1
:405E400034333246206A03F0DBF902A80090291D019120462B1D03A924300A9A03F06EF802006846007A388002D1204601F06EF810460BB0F0BDF0B505463C20405C89B0E4
:405E800016460C4600280CD0307869460873002806D000272046FFF7B3FA012803D003E01F2009B0F0BD012703200890204604A93830019100902346E17E34333A46E06934
:405EC00003F09EF96846007B03A928180290009120462B46019504A92430089A03F062F802466846007B3070204601F039F81046D7E7FFB505463C20405C89B016460C46F8
:405F0000002810D0084601F095F801280BD0308869468883002809D000272046FFF770FA012805D005E000200DB0F0BD0220FBE70127204603A93830019100902346E17E2C
:405F400034333A46E06903F05BF9291D2B1D07A8129A6D4607C5204603A924300C9A03F021F802466846808B3080204600F0F8FF1046D9E770B50D460446FFF741FA0128FA
:405F80000AD0E87AA97A00020143A07801F008FD012808D0002070BD00222421204602F041FD242070BD28214C200155204600F0A3FB282070BD0000002801D0002000E005
:405FC00003484030C07F012800D0002070470000741500200146002049070ED50021084B03E0002901D0002200E01A461279022A04D0491C0906090EF3D070470120704779
:40600000741500200146002049070ED50021084B03E0002901D0002200E01A461279022A04D0491C0906090EF3D07047012070477415002010B5044680346068002803D0D3
:406040000BF0F6FD0020606010BD4030417070474030817070474030017070470171704792001018C166704770B53C2501F080F9040004D020460021433001F031FCFF223B
:406080002946204600F0D4FB002C02D0A07801F0F1F870BD10B5002801D0002000E00348002802D0008903F0F3FD10BD7415002010B5002801D0002000E00448002804D044
:4060C0000179072901D100F047F810BD7415002010B501F04DF9002802D0807801F0CAF810BD00207047000070B50546008A00281ED01049F122897A1140C90618D529463F
:4061000040314A8A098A521C4A4392B2D10800D10121540801E0621A94B2A042FBD9FEF75FFE012804D1298AA878224601F00EFD70BD00000C15002010B50023054C0B602E
:40614000248A944204D992001018C26E0A60C36610BD00002C16002038B5044600200090A079002814D14020015D052901D00E290ED168460BF0EEFC002809D1204600999E
:4061800002F02EFC03481021C28A2046FFF746FC38BD00000C15002010B50B4604460146184602F0ABF8002802D020460BF036FD10BD13B5044601AA11460620FDF76AFF9B
:4061C0006846818861811CBD002800D10220704770470000F8B504462346401D543300909A1EA078911E01F0FDFA25464035A88A298A8000FCF7ACFD401E81B2688A88423B
:4062000003D96982A07801F0BDFF20460021433001F066FB27480088E88102F0E3FEE989891C8AB26179FFF7A3FD01F0CDFC02F0D9FE2A8A6179FFF79BFD074601F0B8FCFF
:40624000688A002806D01C49088A032212021043088202E0002001F089FF1748803801886E8A002E0CD0304648431449FCF760FE0004000C01D0401C80B21149488002E0E2
:406280000F4800214180288A704381B2A07801F0D9FEFF2228374932B9B21346204602F073FCE98AA07801F04DFEA07801F012FAF8BD000080102E40E0112E407102000046
:4062C000E40D00207FB504468034616805460E46183108226846FCF76CFE31462031082202A8FCF766FE102168460BF0CDFB6068102108300BF0C8FB60682B460830243329
:406300001022694602F03AFE7FBD10B504460821FFF78FFB10212046FFF78BFB207905281FD006281DD008281AD12189002003F027FC072020712046FFF762F80146204665
:406340004030012913D00E21017000210176204600F0A2FF2046FFF76DFE2046FFF7C4FE10BD20890122002103F0EEFBE1E70521EAE70000FFB581B01F4604460821FFF784
:4063800058FB10212046FFF754FB2079082803D0092804D0042203E00422012501E009220025204600F032FE264600204036307022712046FFF73EFE0398002D02D0012871
:4063C00008D00BE001280AD120890022029903F0BBFB04E02189029803F0D2FB012700203076012F04D0204600F056FF05B0F0BD02983073204602F041FB05460548012155
:40640000C28A2046FFF70AFB002DEFD109202071ECE700000C15002070B50C460546FEF7EFFF012809D108212846FFF702FB0023012221462846FFF79DFF70BD10B50446D9
:4064400000F0E4FD2046FFF7F5FD00214034217010BD70B505461A24FEF7D2FF012809D108212846FFF7E5FA0023012221462846FFF780FF70BD0000F8B5044600200090C3
:406480000E4668460BF066FB002801D00D20F8BD8420005908212030009D00F01AFA20460421383000F015FA002E02D1204600F0E9FD2946204602F022FA0E480821C28AAF
:4064C0002046FFF7ABFA204600F057FF25464035002808D0204600F023F8002801D0092028700020F8BD08202870204600F0C0FFF7E700000C150020014610B540310A464E
:406500000978082906D0092907D00A2901D100F091F810BD0B20107010BD00F001F810BD70B50446007925464035052805D0062803D008280FD00C2070BD0322062120466C
:4065400002F070FA0D480821C28A2046FFF766FA1120287010E006202873204602F08EFA0646AA8A0A20424301212046FFF756FA002E01D109202071002070BD0C1500209A
:4065800038B504460020009068460BF0E3FA002801D00D2038BD2046009D00F0B1F908202071204600F06EFD2946204602F0DAF900213D2001550F2040210855204600F08B
:4065C00057FF002038BD00B5024600F01FFD10214032117000BD10B50446FEF711FF012809D04020005D112805D100231A4606212046FFF7BFFE10BD10B5FFF786FE10BDC8
:4066000038B504460021684600910BF0A3FA00280CD12046009902F026FA05480821C28A2046FFF7FBF90D204034207038BD00000C15002038B504460021684600910BF00A
:4066400089FA002801D00D2038BD2046009902F0FFF905480821C28A2046FFF7DFF90C2040342070002038BD0C15002000787047F8B50025002801D0002400E01A4C002C87
:4066800028D0204600F0CBFC002823D0207903281CD005281CD026464036B18AA07801F0DBFCB078012815D10021204601F043FE274680373868002802D00BF0B9FA3D60EB
:4066C0000020B0702079072805D007E0042000E006202071F8BD2046FFF706FD0221204600F0E0FEF8BD00007415002010B54C22115400F04CF810BD10B50446FF21FFF794
:4067000098F909202071A07801F0CCFC10BD000038B5FF216A461180002801D0002400E0084C002C0DD011460620FDF7B3FC684601882046FFF73DFD03480068C169204698
:40674000884738BD74150020140E002010B504468079002809D022214C200155FF212046FFF767F9204600F012F810BD10B5037902464032002B03D01173092B02D003E0ED
:40678000002100E02221117300F001F810BDFEB504460089002700902781207926464036002817D0012815D002280AD112E002AA01A9204601F090FD002807D101980BF019
:4067C0002DFA204601F0B0FD0028F0D02046FEF75DFCB776254680352868002802D00BF027FA2F606868002802D00BF021FA6F60317B002919D0009800F064F8A0780021C6
:4068000000F082FF2046FFF7A9FAA07801F0B2F8A07800F02FFDFF212046FFF70AF90B20FFF7C2F800F068FCFEBD1F213173E2E7F8B517460E46054602F0D0FB04003CD075
:4068400020460C3001F03CF82046062200211830FCF7B8FB2046062200211230FCF7B2FB1648224600683946436A28469847074626702846FEF7C4FD012148406070002DCE
:4068800010D02889608028464030C1782171002E0FD169796171018AE180418A2181808A608106E00648008BC005C00F2071002060803946204603F0E6F8F8BDFC0D002040
:4068C00000102E400A4610B50146002003F0F8F910BD10B50AF0B4FE10BD000000B50146FFF716FA002801D0002000E00348002802D002898A4200D0002000BD74150020C2
:4069000038B5044680346068002806D168460BF031F9002801D100986060606838BD000010B5014600F086FB0128887802D0FEF771FD10BD8C214843024940186030007F31
:4069400010BD00005415002070B5054604464035A87F012811D1A1788C20084A484380186030067F3046FEF719FF002805D10220A877A078314601F0B7F870BD541500206A
:4069800010B50C4CA07A002813D0FEF7B3FF0A48027F417F408B00F0B7FB012809D10020A07200F019FF05498989090B01D000F03BFA10BD1016002054150020A0102E408D
:4069C00070477047490510B5490F0B00FCF7F8FC060704080C0C0F073E21FFF787FE10BD0821FFF7C3FE10BDFFF7D1FE10BDFFF7ADFE10BDF8B507460025002D01D00026EE
:406A000000E0204E00F096FE3046403044890021418100F0AFFE304600F001FB01282BD1A00702D52846FFF723FEE00602D52846FFF76EFEA00601D5FEF75CFF600601D532
:406A400000F014FB200602D5284600F01DF8600702D5284600F02CFA380402D52846FFF727FB780402D52846FFF714FBE00703D021463046FFF7A6FF6D1C2D062D0EBCD0D1
:406A8000F8BD000074150020F8B5002801D0002400E0284C002C4BD025464035A878012846D1FF278820493700593E46002805D02149897A890601D5878AC68A2046FEF71D
:406AC0009FFC012834D002F08DFA2A8A6179FFF74FF9009001F06CF800983346283081B23A46204602F050F8E98AA07801F02AFA12480188688A124E002810D04843114926
:406B0000FCF716FA0004000C01D0401C80B27080A07DC107C90F002001F0FAFA01E000207080288A698A484381B2A07801F08AFAF8BD0000741500200C15002060112E40D2
:406B4000E40D0020710200000149096809680847140E002070B50D460026194A0146002801D0002401E014462034002C26D0204600F060FA01280AD18C20484380186030AB
:406B8000007FFEF70BFE002801D101F0F7FE0D48006881692046884700280CD020464030817EA94202D3491B817600E086762089294603F026F8204600F05AFC70BD0000CA
:406BC00054150020140E002070B503460088FFF785FE040013D000F022FA00280FD02079092819D02546997840352973204601F045FF0646A878012803D0AA8A02E00220E6
:406C000070BDEA880A20424301212046FEF706FF002E01D109202071002070BD0EB5002217216B460292198100905A810120029B00990BF09DF80EBDF8B518480024807A39
:406C4000002822D1164E0025B089000B22E0204600F060FE1249A039401807882A462146384600F051FA012810D00E480122478305770A4944778A72002D01D0002000E0FB
:406C80002030002801D000F0F3FBF8BDB089000B641CE4B20028DAD1F8BD000010160020A0102E405415002010B50088FFF716FE002809D0014640310C460978082905D040
:406CC0000B2903D00C2010BD022010BDFFF728FC002801D009202070002010BD70B503460088FFF7FBFD040008D0254640352878082805D00B2803D00C2070BD022070BDF9
:406D00008420005910220830991CFCF752F92046FFF7D8FA2878082804D02046FFF78AFC002801D00A202870204600F0A1FB002070BD000010B50C46002121700088FFF704
:406D4000CDFD03000BD000F06AF9002807D00948F121807A0840C00603D4112010BD022010BD022020701A8A1889002102F0C4FF002010BD0C150020F8B50F46002100913B
:406D80000088FFF7ABFD040012D000F048F900280ED0E079410641D4617E02264A07002A08DB8907402500291ADA2843E07135E00220F8BD02F012F90021017021894180C2
:406DC000A1898180217E4170E189C1803E7005460178134802F06AFC284602F031FF1DE0204600F02DF9012806D068460AF0B2FE002803D00720F8BD2A20F8BDE079009920
:406E00002843E071204601F063FE607E0421304360760448C28A2046FEF700FE0020F8BD1D0400000C1500203EB500220F236C460292238100910190628169460EC900208E
:406E40000AF096FF3EBD0000F8B50F46054600F08FFA040025D003202071254600264035EE76E6702046FFF7B5F901F057F80920FEF79AFDA07800F06BFD0121204600F06E
:406E800011FB2E706E70AE703A4600212046FFF7CFFC0649887B401C8873A078FFF754FEF8BD284601F0FEF8F8BD00005415002010B5002801D0002000E0094800280DD0FF
:406EC000014640310A464978022901D100215170807DC107C90F002001F01AF910BD00007415002070B503460D460088FFF7F6FC04000BD000F093F8002807D01248F121BD
:406F0000807A0840C00603D4112070BD022070BD20464030418A008A491C41430804C10C5888884201D2122070BD20822079072802D12046FFF7D8F802202870208900210F
:406F400002F002FF002070BD0C150020016A491C016204D1817E491C4906490E81767047C169491CC16104D1C17E491C4906490EC1767047F0B5074687B003A8009005A801
:406F800000260D460190002F01D0002400E01B4C002C05D06846FCF76BF8002803D00BE0022007B0F0BD68460089C00704D18C2200212046FCF706F81148294600688268D8
:406FC00020469047050016D1A77066762746267140373E70204600F019F8204601F0A0F9084820820848BE77807AF121084000D001202075E682E8B2D3E70000741500203F
:40700000140E0020B80B00000C150020002101628176C161C17620300177417770470079002805D0012803D0022801D001207047002070474030807F002800D001207047A4
:4070400040300078002807D0012805D0052803D00E2801D0012070470020704710B5807801F0DEF8002800D0012010BD10B500F0B3FB03498989090B01D0FFF7D5FE10BDCF
:40708000A0102E4070B5054604464035A87F002825D1FF206075A0788C21154A484380186030417F8C23491CC9B24177A0785843104B8018DB896030994201D3002141774A
:4070C000A0788C21484380186030467F0677A1783046FEF763FB002802D00120A87770BD0220A877A078314600F0FEFC70BD0000541500202C1600200020401C0006000E2B
:40710000FBD0002070470000F0B515468207920F85B0000A02926A469080002D01D0002400E0524C002C28D0084600F0F3FB07466846808800280BD00298012843D00228FA
:4071400041D003280BD03D20005D012870D087E04748381801882046FFF72BF880E00020029002A80AF0D6FC002807D03D20005D012878D12046FFF7E9FE74E06846029EEF
:407180008388324600213846FCF784FE3848381801882046FFF70DF8284600F0ADFA01AA21463046FEF7FAFD002806D030460AF021FD3D204C21085528E0F5773146204601
:4071C00001F014FA4FE0002000902089039068460AF090FC002802D0002005B0F0BD6846009E8388321D00213846FCF753FE2048381801882046FEF7DCFF284600F07CFAF1
:4072000025464035287E00280CD103E02046FFF773FA28E001AA21463046029BFEF7F6FD002806D030460AF0DBFC3D202873EDE713E00298FEF7CCFF014603983070039887
